{
  "contractName": "CDForTurkey",
  "abi": [
    {
      "inputs": [],
      "stateMutability": "nonpayable",
      "type": "constructor"
    },
    {
      "anonymous": false,
      "inputs": [
        {
          "indexed": true,
          "internalType": "address",
          "name": "account",
          "type": "address"
        },
        {
          "indexed": true,
          "internalType": "address",
          "name": "operator",
          "type": "address"
        },
        {
          "indexed": false,
          "internalType": "bool",
          "name": "approved",
          "type": "bool"
        }
      ],
      "name": "ApprovalForAll",
      "type": "event"
    },
    {
      "anonymous": false,
      "inputs": [
        {
          "indexed": true,
          "internalType": "address",
          "name": "previousOwner",
          "type": "address"
        },
        {
          "indexed": true,
          "internalType": "address",
          "name": "newOwner",
          "type": "address"
        }
      ],
      "name": "OwnershipTransferred",
      "type": "event"
    },
    {
      "anonymous": false,
      "inputs": [
        {
          "indexed": false,
          "internalType": "address",
          "name": "account",
          "type": "address"
        }
      ],
      "name": "Paused",
      "type": "event"
    },
    {
      "anonymous": false,
      "inputs": [
        {
          "indexed": true,
          "internalType": "address",
          "name": "operator",
          "type": "address"
        },
        {
          "indexed": true,
          "internalType": "address",
          "name": "from",
          "type": "address"
        },
        {
          "indexed": true,
          "internalType": "address",
          "name": "to",
          "type": "address"
        },
        {
          "indexed": false,
          "internalType": "uint256[]",
          "name": "ids",
          "type": "uint256[]"
        },
        {
          "indexed": false,
          "internalType": "uint256[]",
          "name": "values",
          "type": "uint256[]"
        }
      ],
      "name": "TransferBatch",
      "type": "event"
    },
    {
      "anonymous": false,
      "inputs": [
        {
          "indexed": true,
          "internalType": "address",
          "name": "operator",
          "type": "address"
        },
        {
          "indexed": true,
          "internalType": "address",
          "name": "from",
          "type": "address"
        },
        {
          "indexed": true,
          "internalType": "address",
          "name": "to",
          "type": "address"
        },
        {
          "indexed": false,
          "internalType": "uint256",
          "name": "id",
          "type": "uint256"
        },
        {
          "indexed": false,
          "internalType": "uint256",
          "name": "value",
          "type": "uint256"
        }
      ],
      "name": "TransferSingle",
      "type": "event"
    },
    {
      "anonymous": false,
      "inputs": [
        {
          "indexed": false,
          "internalType": "string",
          "name": "value",
          "type": "string"
        },
        {
          "indexed": true,
          "internalType": "uint256",
          "name": "id",
          "type": "uint256"
        }
      ],
      "name": "URI",
      "type": "event"
    },
    {
      "anonymous": false,
      "inputs": [
        {
          "indexed": false,
          "internalType": "address",
          "name": "account",
          "type": "address"
        }
      ],
      "name": "Unpaused",
      "type": "event"
    },
    {
      "inputs": [],
      "name": "AHBAP_WALLET",
      "outputs": [
        {
          "internalType": "address",
          "name": "",
          "type": "address"
        }
      ],
      "stateMutability": "view",
      "type": "function",
      "constant": true
    },
    {
      "inputs": [
        {
          "internalType": "address",
          "name": "account",
          "type": "address"
        },
        {
          "internalType": "uint256",
          "name": "id",
          "type": "uint256"
        }
      ],
      "name": "balanceOf",
      "outputs": [
        {
          "internalType": "uint256",
          "name": "",
          "type": "uint256"
        }
      ],
      "stateMutability": "view",
      "type": "function",
      "constant": true
    },
    {
      "inputs": [
        {
          "internalType": "address[]",
          "name": "accounts",
          "type": "address[]"
        },
        {
          "internalType": "uint256[]",
          "name": "ids",
          "type": "uint256[]"
        }
      ],
      "name": "balanceOfBatch",
      "outputs": [
        {
          "internalType": "uint256[]",
          "name": "",
          "type": "uint256[]"
        }
      ],
      "stateMutability": "view",
      "type": "function",
      "constant": true
    },
    {
      "inputs": [],
      "name": "baseURI",
      "outputs": [
        {
          "internalType": "string",
          "name": "",
          "type": "string"
        }
      ],
      "stateMutability": "view",
      "type": "function",
      "constant": true
    },
    {
      "inputs": [
        {
          "internalType": "uint256",
          "name": "id",
          "type": "uint256"
        }
      ],
      "name": "exists",
      "outputs": [
        {
          "internalType": "bool",
          "name": "",
          "type": "bool"
        }
      ],
      "stateMutability": "view",
      "type": "function",
      "constant": true
    },
    {
      "inputs": [
        {
          "internalType": "address",
          "name": "account",
          "type": "address"
        },
        {
          "internalType": "address",
          "name": "operator",
          "type": "address"
        }
      ],
      "name": "isApprovedForAll",
      "outputs": [
        {
          "internalType": "bool",
          "name": "",
          "type": "bool"
        }
      ],
      "stateMutability": "view",
      "type": "function",
      "constant": true
    },
    {
      "inputs": [],
      "name": "owner",
      "outputs": [
        {
          "internalType": "address",
          "name": "",
          "type": "address"
        }
      ],
      "stateMutability": "view",
      "type": "function",
      "constant": true
    },
    {
      "inputs": [],
      "name": "paused",
      "outputs": [
        {
          "internalType": "bool",
          "name": "",
          "type": "bool"
        }
      ],
      "stateMutability": "view",
      "type": "function",
      "constant": true
    },
    {
      "inputs": [],
      "name": "price",
      "outputs": [
        {
          "internalType": "uint256",
          "name": "",
          "type": "uint256"
        }
      ],
      "stateMutability": "view",
      "type": "function",
      "constant": true
    },
    {
      "inputs": [],
      "name": "renounceOwnership",
      "outputs": [],
      "stateMutability": "nonpayable",
      "type": "function"
    },
    {
      "inputs": [
        {
          "internalType": "address",
          "name": "from",
          "type": "address"
        },
        {
          "internalType": "address",
          "name": "to",
          "type": "address"
        },
        {
          "internalType": "uint256[]",
          "name": "ids",
          "type": "uint256[]"
        },
        {
          "internalType": "uint256[]",
          "name": "amounts",
          "type": "uint256[]"
        },
        {
          "internalType": "bytes",
          "name": "data",
          "type": "bytes"
        }
      ],
      "name": "safeBatchTransferFrom",
      "outputs": [],
      "stateMutability": "nonpayable",
      "type": "function"
    },
    {
      "inputs": [
        {
          "internalType": "address",
          "name": "from",
          "type": "address"
        },
        {
          "internalType": "address",
          "name": "to",
          "type": "address"
        },
        {
          "internalType": "uint256",
          "name": "id",
          "type": "uint256"
        },
        {
          "internalType": "uint256",
          "name": "amount",
          "type": "uint256"
        },
        {
          "internalType": "bytes",
          "name": "data",
          "type": "bytes"
        }
      ],
      "name": "safeTransferFrom",
      "outputs": [],
      "stateMutability": "nonpayable",
      "type": "function"
    },
    {
      "inputs": [
        {
          "internalType": "address",
          "name": "operator",
          "type": "address"
        },
        {
          "internalType": "bool",
          "name": "approved",
          "type": "bool"
        }
      ],
      "name": "setApprovalForAll",
      "outputs": [],
      "stateMutability": "nonpayable",
      "type": "function"
    },
    {
      "inputs": [
        {
          "internalType": "bytes4",
          "name": "interfaceId",
          "type": "bytes4"
        }
      ],
      "name": "supportsInterface",
      "outputs": [
        {
          "internalType": "bool",
          "name": "",
          "type": "bool"
        }
      ],
      "stateMutability": "view",
      "type": "function",
      "constant": true
    },
    {
      "inputs": [],
      "name": "total",
      "outputs": [
        {
          "internalType": "uint256",
          "name": "",
          "type": "uint256"
        }
      ],
      "stateMutability": "view",
      "type": "function",
      "constant": true
    },
    {
      "inputs": [
        {
          "internalType": "uint256",
          "name": "id",
          "type": "uint256"
        }
      ],
      "name": "totalSupply",
      "outputs": [
        {
          "internalType": "uint256",
          "name": "",
          "type": "uint256"
        }
      ],
      "stateMutability": "view",
      "type": "function",
      "constant": true
    },
    {
      "inputs": [
        {
          "internalType": "address",
          "name": "newOwner",
          "type": "address"
        }
      ],
      "name": "transferOwnership",
      "outputs": [],
      "stateMutability": "nonpayable",
      "type": "function"
    },
    {
      "inputs": [
        {
          "internalType": "string",
          "name": "_newURI",
          "type": "string"
        }
      ],
      "name": "setBaseURI",
      "outputs": [],
      "stateMutability": "nonpayable",
      "type": "function"
    },
    {
      "inputs": [
        {
          "internalType": "uint256",
          "name": "_price",
          "type": "uint256"
        }
      ],
      "name": "setPrice",
      "outputs": [],
      "stateMutability": "nonpayable",
      "type": "function"
    },
    {
      "inputs": [
        {
          "internalType": "uint256",
          "name": "_total",
          "type": "uint256"
        }
      ],
      "name": "setTotal",
      "outputs": [],
      "stateMutability": "nonpayable",
      "type": "function"
    },
    {
      "inputs": [],
      "name": "pause",
      "outputs": [],
      "stateMutability": "nonpayable",
      "type": "function"
    },
    {
      "inputs": [],
      "name": "unpause",
      "outputs": [],
      "stateMutability": "nonpayable",
      "type": "function"
    },
    {
      "inputs": [
        {
          "internalType": "uint256",
          "name": "_id",
          "type": "uint256"
        },
        {
          "internalType": "uint256",
          "name": "_amount",
          "type": "uint256"
        }
      ],
      "name": "mint",
      "outputs": [],
      "stateMutability": "payable",
      "type": "function",
      "payable": true
    },
    {
      "inputs": [],
      "name": "withdraw",
      "outputs": [],
      "stateMutability": "nonpayable",
      "type": "function"
    },
    {
      "inputs": [
        {
          "internalType": "uint256",
          "name": "tokenId",
          "type": "uint256"
        }
      ],
      "name": "uri",
      "outputs": [
        {
          "internalType": "string",
          "name": "",
          "type": "string"
        }
      ],
      "stateMutability": "view",
      "type": "function",
      "constant": true
    }
  ],
  "bytecode": "0x660aa87bee538000600555600a60065560c0604052601f60809081527f68747470733a2f2f666f727475726b65792e6172742f6d657461646174612f0060a0526007906200004e90826200019f565b503480156200005c57600080fd5b50604080516020810190915260008152620000778162000096565b506200008333620000a8565b6003805460ff60a01b191690556200026b565b6002620000a482826200019f565b5050565b600380546001600160a01b038381166001600160a01b0319831681179093556040519116919082907f8be0079c531659141344cd1fd0a4f28419497f9722a3daafe3b4186f6b6457e090600090a35050565b634e487b7160e01b600052604160045260246000fd5b600181811c908216806200012557607f821691505b6020821081036200014657634e487b7160e01b600052602260045260246000fd5b50919050565b601f8211156200019a57600081815260208120601f850160051c81016020861015620001755750805b601f850160051c820191505b81811015620001965782815560010162000181565b5050505b505050565b81516001600160401b03811115620001bb57620001bb620000fa565b620001d381620001cc845462000110565b846200014c565b602080601f8311600181146200020b5760008415620001f25750858301515b600019600386901b1c1916600185901b17855562000196565b600085815260208120601f198616915b828110156200023c578886015182559484019460019091019084016200021b565b50858210156200025b5787850151600019600388901b60f8161c191681555b5050505050600190811b01905550565b61220b806200027b6000396000f3fe6080604052600436106101655760003560e01c806355f804b3116100d157806391b7f5ed1161008a578063bd85b03911610064578063bd85b0391461041d578063e985e9c51461044a578063f242432a14610493578063f2fde38b146104b357600080fd5b806391b7f5ed146103c7578063a035b1fe146103e7578063a22cb465146103fd57600080fd5b806355f804b31461032b5780635c975abb1461034b5780636c0360eb1461036a578063715018a61461037f5780638456cb59146103945780638da5cb5b146103a957600080fd5b80632ddbd13a116101235780632ddbd13a1461026f5780632eb2c2d6146102855780633ccfd60b146102a55780633f4ba83a146102ba5780634e1273f4146102cf5780634f558e79146102fc57600080fd5b8062fdd58e1461016a57806301ffc9a71461019d5780630e89341c146101cd5780631b2ef1ca146101fa5780631f8d1d501461020f57806329932cc41461022f575b600080fd5b34801561017657600080fd5b5061018a610185366004611776565b6104d3565b6040519081526020015b60405180910390f35b3480156101a957600080fd5b506101bd6101b83660046117b6565b61056c565b6040519015158152602001610194565b3480156101d957600080fd5b506101ed6101e83660046117da565b6105bc565b6040516101949190611843565b61020d610208366004611856565b610636565b005b34801561021b57600080fd5b5061020d61022a3660046117da565b6106f9565b34801561023b57600080fd5b5061025773e1935271d1993434a1a59fe08f24891dc5f398cd81565b6040516001600160a01b039091168152602001610194565b34801561027b57600080fd5b5061018a60065481565b34801561029157600080fd5b5061020d6102a03660046119ce565b610749565b3480156102b157600080fd5b5061020d610795565b3480156102c657600080fd5b5061020d610825565b3480156102db57600080fd5b506102ef6102ea366004611a78565b610837565b6040516101949190611b7e565b34801561030857600080fd5b506101bd6103173660046117da565b600090815260046020526040902054151590565b34801561033757600080fd5b5061020d610346366004611b91565b610961565b34801561035757600080fd5b50600354600160a01b900460ff166101bd565b34801561037657600080fd5b506101ed610975565b34801561038b57600080fd5b5061020d610a03565b3480156103a057600080fd5b5061020d610a15565b3480156103b557600080fd5b506003546001600160a01b0316610257565b3480156103d357600080fd5b5061020d6103e23660046117da565b610a25565b3480156103f357600080fd5b5061018a60055481565b34801561040957600080fd5b5061020d610418366004611be2565b610a32565b34801561042957600080fd5b5061018a6104383660046117da565b60009081526004602052604090205490565b34801561045657600080fd5b506101bd610465366004611c1e565b6001600160a01b03918216600090815260016020908152604080832093909416825291909152205460ff1690565b34801561049f57600080fd5b5061020d6104ae366004611c51565b610a3d565b3480156104bf57600080fd5b5061020d6104ce366004611cb6565b610a82565b60006001600160a01b0383166105435760405162461bcd60e51b815260206004820152602a60248201527f455243313135353a2061646472657373207a65726f206973206e6f742061207660448201526930b634b21037bbb732b960b11b60648201526084015b60405180910390fd5b506000818152602081815260408083206001600160a01b03861684529091529020545b92915050565b60006001600160e01b03198216636cdb3d1360e11b148061059d57506001600160e01b031982166303a24d0760e21b145b8061056657506301ffc9a760e01b6001600160e01b0319831614610566565b606060065482106106045760405162461bcd60e51b81526020600482015260126024820152711513d2d153881251081393d508159053125160721b604482015260640161053a565b600761060f83610af8565b604051602001610620929190611d0b565b6040516020818303038152906040529050919050565b61063e610b8b565b60065482106106845760405162461bcd60e51b81526020600482015260126024820152711513d2d153881251081393d508159053125160721b604482015260640161053a565b806005546106929190611db8565b3410156106da5760405162461bcd60e51b81526020600482015260166024820152751393d508115393d551d208115512115494c814d1539160521b604482015260640161053a565b6106f533838360405180602001604052806000815250610bd8565b5050565b610701610cfb565b80600654106107445760405162461bcd60e51b815260206004820152600f60248201526e1590531551481393d5081590531251608a1b604482015260640161053a565b600655565b6001600160a01b03851633148061076557506107658533610465565b6107815760405162461bcd60e51b815260040161053a90611dcf565b61078e8585858585610d55565b5050505050565b61079d610cfb565b600047116107e25760405162461bcd60e51b8152602060048201526012602482015271494e53554646494349454e542046554e445360701b604482015260640161053a565b60405173e1935271d1993434a1a59fe08f24891dc5f398cd904780156108fc02916000818181858888f19350505050158015610822573d6000803e3d6000fd5b50565b61082d610cfb565b610835610f40565b565b6060815183511461089c5760405162461bcd60e51b815260206004820152602960248201527f455243313135353a206163636f756e747320616e6420696473206c656e677468604482015268040dad2e6dac2e8c6d60bb1b606482015260840161053a565b6000835167ffffffffffffffff8111156108b8576108b8611878565b6040519080825280602002602001820160405280156108e1578160200160208202803683370190505b50905060005b84518110156109595761092c85828151811061090557610905611e1d565b602002602001015185838151811061091f5761091f611e1d565b60200260200101516104d3565b82828151811061093e5761093e611e1d565b602090810291909101015261095281611e33565b90506108e7565b509392505050565b610969610cfb565b60076106f58282611e97565b6007805461098290611cd1565b80601f01602080910402602001604051908101604052809291908181526020018280546109ae90611cd1565b80156109fb5780601f106109d0576101008083540402835291602001916109fb565b820191906000526020600020905b8154815290600101906020018083116109de57829003601f168201915b505050505081565b610a0b610cfb565b6108356000610f95565b610a1d610cfb565b610835610fe7565b610a2d610cfb565b600555565b6106f533838361102a565b6001600160a01b038516331480610a595750610a598533610465565b610a755760405162461bcd60e51b815260040161053a90611dcf565b61078e858585858561110a565b610a8a610cfb565b6001600160a01b038116610aef5760405162461bcd60e51b815260206004820152602660248201527f4f776e61626c653a206e6577206f776e657220697320746865207a65726f206160448201526564647265737360d01b606482015260840161053a565b61082281610f95565b60606000610b0583611242565b600101905060008167ffffffffffffffff811115610b2557610b25611878565b6040519080825280601f01601f191660200182016040528015610b4f576020820181803683370190505b5090508181016020015b600019016f181899199a1a9b1b9c1cb0b131b232b360811b600a86061a8153600a8504945084610b5957509392505050565b600354600160a01b900460ff16156108355760405162461bcd60e51b815260206004820152601060248201526f14185d5cd8589b194e881c185d5cd95960821b604482015260640161053a565b6001600160a01b038416610c385760405162461bcd60e51b815260206004820152602160248201527f455243313135353a206d696e7420746f20746865207a65726f206164647265736044820152607360f81b606482015260840161053a565b336000610c448561131a565b90506000610c518561131a565b9050610c6283600089858589611365565b6000868152602081815260408083206001600160a01b038b16845290915281208054879290610c92908490611f57565b909155505060408051878152602081018790526001600160a01b03808a1692600092918716917fc3d58168c5ae7397731d063d5bbf3d657854427343f4c083240f7aacaa2d0f62910160405180910390a4610cf28360008989898961137b565b50505050505050565b6003546001600160a01b031633146108355760405162461bcd60e51b815260206004820181905260248201527f4f776e61626c653a2063616c6c6572206973206e6f7420746865206f776e6572604482015260640161053a565b8151835114610db75760405162461bcd60e51b815260206004820152602860248201527f455243313135353a2069647320616e6420616d6f756e7473206c656e677468206044820152670dad2e6dac2e8c6d60c31b606482015260840161053a565b6001600160a01b038416610ddd5760405162461bcd60e51b815260040161053a90611f6a565b33610dec818787878787611365565b60005b8451811015610ed2576000858281518110610e0c57610e0c611e1d565b602002602001015190506000858381518110610e2a57610e2a611e1d565b602090810291909101810151600084815280835260408082206001600160a01b038e168352909352919091205490915081811015610e7a5760405162461bcd60e51b815260040161053a90611faf565b6000838152602081815260408083206001600160a01b038e8116855292528083208585039055908b16825281208054849290610eb7908490611f57565b9250508190555050505080610ecb90611e33565b9050610def565b50846001600160a01b0316866001600160a01b0316826001600160a01b03167f4a39dc06d4c0dbc64b70af90fd698a233a518aa5d07e595d983b8c0526c8f7fb8787604051610f22929190611ff9565b60405180910390a4610f388187878787876114d6565b505050505050565b610f48611591565b6003805460ff60a01b191690557f5db9ee0a495bf2e6ff9c91a7834c1ba4fdd244a5e8aa4e537bd38aeae4b073aa335b6040516001600160a01b03909116815260200160405180910390a1565b600380546001600160a01b038381166001600160a01b0319831681179093556040519116919082907f8be0079c531659141344cd1fd0a4f28419497f9722a3daafe3b4186f6b6457e090600090a35050565b610fef610b8b565b6003805460ff60a01b1916600160a01b1790557f62e78cea01bee320cd4e420270b5ea74000d11b0c9f74754ebdbfc544b05a258610f783390565b816001600160a01b0316836001600160a01b03160361109d5760405162461bcd60e51b815260206004820152602960248201527f455243313135353a2073657474696e6720617070726f76616c20737461747573604482015268103337b91039b2b63360b91b606482015260840161053a565b6001600160a01b03838116600081815260016020908152604080832094871680845294825291829020805460ff191686151590811790915591519182527f17307eab39ab6107e8899845ad3d59bd9653f200f220920489ca2b5937696c31910160405180910390a3505050565b6001600160a01b0384166111305760405162461bcd60e51b815260040161053a90611f6a565b33600061113c8561131a565b905060006111498561131a565b9050611159838989858589611365565b6000868152602081815260408083206001600160a01b038c1684529091529020548581101561119a5760405162461bcd60e51b815260040161053a90611faf565b6000878152602081815260408083206001600160a01b038d8116855292528083208985039055908a168252812080548892906111d7908490611f57565b909155505060408051888152602081018890526001600160a01b03808b16928c821692918816917fc3d58168c5ae7397731d063d5bbf3d657854427343f4c083240f7aacaa2d0f62910160405180910390a4611237848a8a8a8a8a61137b565b505050505050505050565b60008072184f03e93ff9f4daa797ed6e38ed64bf6a1f0160401b83106112815772184f03e93ff9f4daa797ed6e38ed64bf6a1f0160401b830492506040015b6d04ee2d6d415b85acef810000000083106112ad576d04ee2d6d415b85acef8100000000830492506020015b662386f26fc1000083106112cb57662386f26fc10000830492506010015b6305f5e10083106112e3576305f5e100830492506008015b61271083106112f757612710830492506004015b60648310611309576064830492506002015b600a83106105665760010192915050565b6040805160018082528183019092526060916000919060208083019080368337019050509050828160008151811061135457611354611e1d565b602090810291909101015292915050565b61136d610b8b565b610f388686868686866115e1565b6001600160a01b0384163b15610f385760405163f23a6e6160e01b81526001600160a01b0385169063f23a6e61906113bf9089908990889088908890600401612027565b6020604051808303816000875af19250505080156113fa575060408051601f3d908101601f191682019092526113f79181019061206c565b60015b6114a657611406612089565b806308c379a00361143f575061141a6120a5565b806114255750611441565b8060405162461bcd60e51b815260040161053a9190611843565b505b60405162461bcd60e51b815260206004820152603460248201527f455243313135353a207472616e7366657220746f206e6f6e2d455243313135356044820152732932b1b2b4bb32b91034b6b83632b6b2b73a32b960611b606482015260840161053a565b6001600160e01b0319811663f23a6e6160e01b14610cf25760405162461bcd60e51b815260040161053a9061212f565b6001600160a01b0384163b15610f385760405163bc197c8160e01b81526001600160a01b0385169063bc197c819061151a9089908990889088908890600401612177565b6020604051808303816000875af1925050508015611555575060408051601f3d908101601f191682019092526115529181019061206c565b60015b61156157611406612089565b6001600160e01b0319811663bc197c8160e01b14610cf25760405162461bcd60e51b815260040161053a9061212f565b600354600160a01b900460ff166108355760405162461bcd60e51b815260206004820152601460248201527314185d5cd8589b194e881b9bdd081c185d5cd95960621b604482015260640161053a565b6001600160a01b0385166116685760005b83518110156116665782818151811061160d5761160d611e1d565b60200260200101516004600086848151811061162b5761162b611e1d565b6020026020010151815260200190815260200160002060008282546116509190611f57565b9091555061165f905081611e33565b90506115f2565b505b6001600160a01b038416610f385760005b8351811015610cf257600084828151811061169657611696611e1d565b6020026020010151905060008483815181106116b4576116b4611e1d565b60200260200101519050600060046000848152602001908152602001600020549050818110156117375760405162461bcd60e51b815260206004820152602860248201527f455243313135353a206275726e20616d6f756e74206578636565647320746f74604482015267616c537570706c7960c01b606482015260840161053a565b6000928352600460205260409092209103905561175381611e33565b9050611679565b80356001600160a01b038116811461177157600080fd5b919050565b6000806040838503121561178957600080fd5b6117928361175a565b946020939093013593505050565b6001600160e01b03198116811461082257600080fd5b6000602082840312156117c857600080fd5b81356117d3816117a0565b9392505050565b6000602082840312156117ec57600080fd5b5035919050565b60005b8381101561180e5781810151838201526020016117f6565b50506000910152565b6000815180845261182f8160208601602086016117f3565b601f01601f19169290920160200192915050565b6020815260006117d36020830184611817565b6000806040838503121561186957600080fd5b50508035926020909101359150565b634e487b7160e01b600052604160045260246000fd5b601f8201601f1916810167ffffffffffffffff811182821017156118b4576118b4611878565b6040525050565b600067ffffffffffffffff8211156118d5576118d5611878565b5060051b60200190565b600082601f8301126118f057600080fd5b813560206118fd826118bb565b60405161190a828261188e565b83815260059390931b850182019282810191508684111561192a57600080fd5b8286015b84811015611945578035835291830191830161192e565b509695505050505050565b600067ffffffffffffffff83111561196a5761196a611878565b604051611981601f8501601f19166020018261188e565b80915083815284848401111561199657600080fd5b83836020830137600060208583010152509392505050565b600082601f8301126119bf57600080fd5b6117d383833560208501611950565b600080600080600060a086880312156119e657600080fd5b6119ef8661175a565b94506119fd6020870161175a565b9350604086013567ffffffffffffffff80821115611a1a57600080fd5b611a2689838a016118df565b94506060880135915080821115611a3c57600080fd5b611a4889838a016118df565b93506080880135915080821115611a5e57600080fd5b50611a6b888289016119ae565b9150509295509295909350565b60008060408385031215611a8b57600080fd5b823567ffffffffffffffff80821115611aa357600080fd5b818501915085601f830112611ab757600080fd5b81356020611ac4826118bb565b604051611ad1828261188e565b83815260059390931b8501820192828101915089841115611af157600080fd5b948201945b83861015611b1657611b078661175a565b82529482019490820190611af6565b96505086013592505080821115611b2c57600080fd5b50611b39858286016118df565b9150509250929050565b600081518084526020808501945080840160005b83811015611b7357815187529582019590820190600101611b57565b509495945050505050565b6020815260006117d36020830184611b43565b600060208284031215611ba357600080fd5b813567ffffffffffffffff811115611bba57600080fd5b8201601f81018413611bcb57600080fd5b611bda84823560208401611950565b949350505050565b60008060408385031215611bf557600080fd5b611bfe8361175a565b915060208301358015158114611c1357600080fd5b809150509250929050565b60008060408385031215611c3157600080fd5b611c3a8361175a565b9150611c486020840161175a565b90509250929050565b600080600080600060a08688031215611c6957600080fd5b611c728661175a565b9450611c806020870161175a565b93506040860135925060608601359150608086013567ffffffffffffffff811115611caa57600080fd5b611a6b888289016119ae565b600060208284031215611cc857600080fd5b6117d38261175a565b600181811c90821680611ce557607f821691505b602082108103611d0557634e487b7160e01b600052602260045260246000fd5b50919050565b6000808454611d1981611cd1565b60018281168015611d315760018114611d4657611d75565b60ff1984168752821515830287019450611d75565b8860005260208060002060005b85811015611d6c5781548a820152908401908201611d53565b50505082870194505b505050508351611d898183602088016117f3565b64173539b7b760d91b9101908152600501949350505050565b634e487b7160e01b600052601160045260246000fd5b808202811582820484141761056657610566611da2565b6020808252602e908201527f455243313135353a2063616c6c6572206973206e6f7420746f6b656e206f776e60408201526d195c881bdc88185c1c1c9bdd995960921b606082015260800190565b634e487b7160e01b600052603260045260246000fd5b600060018201611e4557611e45611da2565b5060010190565b601f821115611e9257600081815260208120601f850160051c81016020861015611e735750805b601f850160051c820191505b81811015610f3857828155600101611e7f565b505050565b815167ffffffffffffffff811115611eb157611eb1611878565b611ec581611ebf8454611cd1565b84611e4c565b602080601f831160018114611efa5760008415611ee25750858301515b600019600386901b1c1916600185901b178555610f38565b600085815260208120601f198616915b82811015611f2957888601518255948401946001909101908401611f0a565b5085821015611f475787850151600019600388901b60f8161c191681555b5050505050600190811b01905550565b8082018082111561056657610566611da2565b60208082526025908201527f455243313135353a207472616e7366657220746f20746865207a65726f206164604082015264647265737360d81b606082015260800190565b6020808252602a908201527f455243313135353a20696e73756666696369656e742062616c616e636520666f60408201526939103a3930b739b332b960b11b606082015260800190565b60408152600061200c6040830185611b43565b828103602084015261201e8185611b43565b95945050505050565b6001600160a01b03868116825285166020820152604081018490526060810183905260a06080820181905260009061206190830184611817565b979650505050505050565b60006020828403121561207e57600080fd5b81516117d3816117a0565b600060033d11156120a25760046000803e5060005160e01c5b90565b600060443d10156120b35790565b6040516003193d81016004833e81513d67ffffffffffffffff81602484011181841117156120e357505050505090565b82850191508151818111156120fb5750505050505090565b843d87010160208285010111156121155750505050505090565b6121246020828601018761188e565b509095945050505050565b60208082526028908201527f455243313135353a204552433131353552656365697665722072656a656374656040820152676420746f6b656e7360c01b606082015260800190565b6001600160a01b0386811682528516602082015260a0604082018190526000906121a390830186611b43565b82810360608401526121b58186611b43565b905082810360808401526121c98185611817565b9897505050505050505056fea2646970667358221220501c8316f217809d5688e1224fa8bd98bc1bc5219bd3c8e87ef02abf0fd7daa064736f6c63430008110033",
  "immutableReferences": {},
  "source": "// SPDX-License-Identifier: MIT\npragma solidity ^0.8.9;\n\nimport \"@openzeppelin/contracts/token/ERC1155/ERC1155.sol\";\nimport \"@openzeppelin/contracts/access/Ownable.sol\";\nimport \"@openzeppelin/contracts/security/Pausable.sol\";\nimport \"@openzeppelin/contracts/utils/Strings.sol\";\nimport \"@openzeppelin/contracts/token/ERC1155/extensions/ERC1155Supply.sol\";\n\ncontract CDForTurkey is ERC1155, Ownable, Pausable, ERC1155Supply {\n    \n    address public constant AHBAP_WALLET = 0xe1935271D1993434A1a59fE08f24891Dc5F398Cd;\n\n    uint256 public price = 0.003 ether;\n    uint256 public total = 10;\n\n    string public baseURI = \"https://forturkey.art/metadata/\";\n\n    constructor() ERC1155(\"\") {}\n\n    function setBaseURI(string memory _newURI) external onlyOwner {\n        baseURI = _newURI;\n    }\n\n    function setPrice(uint256 _price) external onlyOwner {\n\t\tprice = _price;\n\t}\n\n    function setTotal(uint256 _total) external onlyOwner {\n        require(total < _total, \"VALUE NOT VALID\");\n\n\t\ttotal = _total;\n\t}\n\n    function pause() external onlyOwner {\n        _pause();\n    }\n\n    function unpause() external onlyOwner {\n        _unpause();\n    }\n\n    function mint(uint256 _id, uint256 _amount) public payable whenNotPaused {\n        require(_id < total, \"TOKEN ID NOT VALID\");\n        require(msg.value >= price * _amount, \"NOT ENOUGH ETHERS SEND\");\n\n        _mint(msg.sender, _id, _amount, \"\");\n    }\n\n    function withdraw() external onlyOwner {\n\t\trequire(address(this).balance > 0, \"INSUFFICIENT FUNDS\");\n\t\t\n\t\tpayable(AHBAP_WALLET).transfer(address(this).balance);\n\t}\n\n    function uri(uint256 tokenId) public view virtual override(ERC1155) returns (string memory) {\n        require(tokenId < total, \"TOKEN ID NOT VALID\");\n\n\t\treturn (\n            string(abi.encodePacked(\n                baseURI,\n                Strings.toString(tokenId),\n                \".json\"\n            ))\n        );\n\t}\n\n    function _beforeTokenTransfer(\n        address _operator,\n        address _from,\n        address _to,\n        uint256[] memory _ids,\n        uint256[] memory _amounts,\n        bytes memory _data\n    ) internal override(ERC1155, ERC1155Supply) whenNotPaused {\n        super._beforeTokenTransfer(_operator, _from, _to, _ids, _amounts, _data);\n    }\n}\n",
  "sourcePath": "/Users/devbhang/Documents/Projects/help-turkey-contacts/contracts/CDForTurkey.sol",
  "compiler": {
    "name": "solc",
    "version": "0.8.17+commit.8df45f5f.Emscripten.clang"
  },
  "schemaVersion": "3.4.10",
  "updatedAt": "2023-02-07T21:30:38.261Z",
  "networkType": "ethereum",
  "devdoc": {
    "kind": "dev",
    "methods": {
      "balanceOf(address,uint256)": {
        "details": "See {IERC1155-balanceOf}. Requirements: - `account` cannot be the zero address."
      },
      "balanceOfBatch(address[],uint256[])": {
        "details": "See {IERC1155-balanceOfBatch}. Requirements: - `accounts` and `ids` must have the same length."
      },
      "exists(uint256)": {
        "details": "Indicates whether any token exist with a given id, or not."
      },
      "isApprovedForAll(address,address)": {
        "details": "See {IERC1155-isApprovedForAll}."
      },
      "owner()": {
        "details": "Returns the address of the current owner."
      },
      "paused()": {
        "details": "Returns true if the contract is paused, and false otherwise."
      },
      "renounceOwnership()": {
        "details": "Leaves the contract without owner. It will not be possible to call `onlyOwner` functions anymore. Can only be called by the current owner. NOTE: Renouncing ownership will leave the contract without an owner, thereby removing any functionality that is only available to the owner."
      },
      "safeBatchTransferFrom(address,address,uint256[],uint256[],bytes)": {
        "details": "See {IERC1155-safeBatchTransferFrom}."
      },
      "safeTransferFrom(address,address,uint256,uint256,bytes)": {
        "details": "See {IERC1155-safeTransferFrom}."
      },
      "setApprovalForAll(address,bool)": {
        "details": "See {IERC1155-setApprovalForAll}."
      },
      "supportsInterface(bytes4)": {
        "details": "See {IERC165-supportsInterface}."
      },
      "totalSupply(uint256)": {
        "details": "Total amount of tokens in with a given id."
      },
      "transferOwnership(address)": {
        "details": "Transfers ownership of the contract to a new account (`newOwner`). Can only be called by the current owner."
      }
    },
    "version": 1
  },
  "userdoc": {
    "kind": "user",
    "methods": {},
    "version": 1
  }
}