{
  "contractName": "CDForTurkey",
  "abi": [
    {
      "inputs": [],
      "stateMutability": "nonpayable",
      "type": "constructor"
    },
    {
      "anonymous": false,
      "inputs": [
        {
          "indexed": true,
          "internalType": "address",
          "name": "account",
          "type": "address"
        },
        {
          "indexed": true,
          "internalType": "address",
          "name": "operator",
          "type": "address"
        },
        {
          "indexed": false,
          "internalType": "bool",
          "name": "approved",
          "type": "bool"
        }
      ],
      "name": "ApprovalForAll",
      "type": "event"
    },
    {
      "anonymous": false,
      "inputs": [
        {
          "indexed": true,
          "internalType": "address",
          "name": "previousOwner",
          "type": "address"
        },
        {
          "indexed": true,
          "internalType": "address",
          "name": "newOwner",
          "type": "address"
        }
      ],
      "name": "OwnershipTransferred",
      "type": "event"
    },
    {
      "anonymous": false,
      "inputs": [
        {
          "indexed": false,
          "internalType": "address",
          "name": "account",
          "type": "address"
        }
      ],
      "name": "Paused",
      "type": "event"
    },
    {
      "anonymous": false,
      "inputs": [
        {
          "indexed": true,
          "internalType": "address",
          "name": "operator",
          "type": "address"
        },
        {
          "indexed": true,
          "internalType": "address",
          "name": "from",
          "type": "address"
        },
        {
          "indexed": true,
          "internalType": "address",
          "name": "to",
          "type": "address"
        },
        {
          "indexed": false,
          "internalType": "uint256[]",
          "name": "ids",
          "type": "uint256[]"
        },
        {
          "indexed": false,
          "internalType": "uint256[]",
          "name": "values",
          "type": "uint256[]"
        }
      ],
      "name": "TransferBatch",
      "type": "event"
    },
    {
      "anonymous": false,
      "inputs": [
        {
          "indexed": true,
          "internalType": "address",
          "name": "operator",
          "type": "address"
        },
        {
          "indexed": true,
          "internalType": "address",
          "name": "from",
          "type": "address"
        },
        {
          "indexed": true,
          "internalType": "address",
          "name": "to",
          "type": "address"
        },
        {
          "indexed": false,
          "internalType": "uint256",
          "name": "id",
          "type": "uint256"
        },
        {
          "indexed": false,
          "internalType": "uint256",
          "name": "value",
          "type": "uint256"
        }
      ],
      "name": "TransferSingle",
      "type": "event"
    },
    {
      "anonymous": false,
      "inputs": [
        {
          "indexed": false,
          "internalType": "string",
          "name": "value",
          "type": "string"
        },
        {
          "indexed": true,
          "internalType": "uint256",
          "name": "id",
          "type": "uint256"
        }
      ],
      "name": "URI",
      "type": "event"
    },
    {
      "anonymous": false,
      "inputs": [
        {
          "indexed": false,
          "internalType": "address",
          "name": "account",
          "type": "address"
        }
      ],
      "name": "Unpaused",
      "type": "event"
    },
    {
      "inputs": [],
      "name": "ahbapWallet",
      "outputs": [
        {
          "internalType": "address",
          "name": "",
          "type": "address"
        }
      ],
      "stateMutability": "view",
      "type": "function"
    },
    {
      "inputs": [
        {
          "internalType": "address",
          "name": "account",
          "type": "address"
        },
        {
          "internalType": "uint256",
          "name": "id",
          "type": "uint256"
        }
      ],
      "name": "balanceOf",
      "outputs": [
        {
          "internalType": "uint256",
          "name": "",
          "type": "uint256"
        }
      ],
      "stateMutability": "view",
      "type": "function"
    },
    {
      "inputs": [
        {
          "internalType": "address[]",
          "name": "accounts",
          "type": "address[]"
        },
        {
          "internalType": "uint256[]",
          "name": "ids",
          "type": "uint256[]"
        }
      ],
      "name": "balanceOfBatch",
      "outputs": [
        {
          "internalType": "uint256[]",
          "name": "",
          "type": "uint256[]"
        }
      ],
      "stateMutability": "view",
      "type": "function"
    },
    {
      "inputs": [],
      "name": "baseURI",
      "outputs": [
        {
          "internalType": "string",
          "name": "",
          "type": "string"
        }
      ],
      "stateMutability": "view",
      "type": "function"
    },
    {
      "inputs": [
        {
          "internalType": "uint256",
          "name": "id",
          "type": "uint256"
        }
      ],
      "name": "exists",
      "outputs": [
        {
          "internalType": "bool",
          "name": "",
          "type": "bool"
        }
      ],
      "stateMutability": "view",
      "type": "function"
    },
    {
      "inputs": [
        {
          "internalType": "address",
          "name": "account",
          "type": "address"
        },
        {
          "internalType": "address",
          "name": "operator",
          "type": "address"
        }
      ],
      "name": "isApprovedForAll",
      "outputs": [
        {
          "internalType": "bool",
          "name": "",
          "type": "bool"
        }
      ],
      "stateMutability": "view",
      "type": "function"
    },
    {
      "inputs": [],
      "name": "owner",
      "outputs": [
        {
          "internalType": "address",
          "name": "",
          "type": "address"
        }
      ],
      "stateMutability": "view",
      "type": "function"
    },
    {
      "inputs": [],
      "name": "paused",
      "outputs": [
        {
          "internalType": "bool",
          "name": "",
          "type": "bool"
        }
      ],
      "stateMutability": "view",
      "type": "function"
    },
    {
      "inputs": [],
      "name": "price",
      "outputs": [
        {
          "internalType": "uint256",
          "name": "",
          "type": "uint256"
        }
      ],
      "stateMutability": "view",
      "type": "function"
    },
    {
      "inputs": [],
      "name": "renounceOwnership",
      "outputs": [],
      "stateMutability": "nonpayable",
      "type": "function"
    },
    {
      "inputs": [
        {
          "internalType": "address",
          "name": "from",
          "type": "address"
        },
        {
          "internalType": "address",
          "name": "to",
          "type": "address"
        },
        {
          "internalType": "uint256[]",
          "name": "ids",
          "type": "uint256[]"
        },
        {
          "internalType": "uint256[]",
          "name": "amounts",
          "type": "uint256[]"
        },
        {
          "internalType": "bytes",
          "name": "data",
          "type": "bytes"
        }
      ],
      "name": "safeBatchTransferFrom",
      "outputs": [],
      "stateMutability": "nonpayable",
      "type": "function"
    },
    {
      "inputs": [
        {
          "internalType": "address",
          "name": "from",
          "type": "address"
        },
        {
          "internalType": "address",
          "name": "to",
          "type": "address"
        },
        {
          "internalType": "uint256",
          "name": "id",
          "type": "uint256"
        },
        {
          "internalType": "uint256",
          "name": "amount",
          "type": "uint256"
        },
        {
          "internalType": "bytes",
          "name": "data",
          "type": "bytes"
        }
      ],
      "name": "safeTransferFrom",
      "outputs": [],
      "stateMutability": "nonpayable",
      "type": "function"
    },
    {
      "inputs": [
        {
          "internalType": "address",
          "name": "operator",
          "type": "address"
        },
        {
          "internalType": "bool",
          "name": "approved",
          "type": "bool"
        }
      ],
      "name": "setApprovalForAll",
      "outputs": [],
      "stateMutability": "nonpayable",
      "type": "function"
    },
    {
      "inputs": [
        {
          "internalType": "bytes4",
          "name": "interfaceId",
          "type": "bytes4"
        }
      ],
      "name": "supportsInterface",
      "outputs": [
        {
          "internalType": "bool",
          "name": "",
          "type": "bool"
        }
      ],
      "stateMutability": "view",
      "type": "function"
    },
    {
      "inputs": [],
      "name": "total",
      "outputs": [
        {
          "internalType": "uint256",
          "name": "",
          "type": "uint256"
        }
      ],
      "stateMutability": "view",
      "type": "function"
    },
    {
      "inputs": [
        {
          "internalType": "uint256",
          "name": "id",
          "type": "uint256"
        }
      ],
      "name": "totalSupply",
      "outputs": [
        {
          "internalType": "uint256",
          "name": "",
          "type": "uint256"
        }
      ],
      "stateMutability": "view",
      "type": "function"
    },
    {
      "inputs": [
        {
          "internalType": "address",
          "name": "newOwner",
          "type": "address"
        }
      ],
      "name": "transferOwnership",
      "outputs": [],
      "stateMutability": "nonpayable",
      "type": "function"
    },
    {
      "inputs": [
        {
          "internalType": "address",
          "name": "_address",
          "type": "address"
        }
      ],
      "name": "setAhbapWallet",
      "outputs": [],
      "stateMutability": "nonpayable",
      "type": "function"
    },
    {
      "inputs": [
        {
          "internalType": "string",
          "name": "_newURI",
          "type": "string"
        }
      ],
      "name": "setBaseURI",
      "outputs": [],
      "stateMutability": "nonpayable",
      "type": "function"
    },
    {
      "inputs": [
        {
          "internalType": "uint256",
          "name": "_price",
          "type": "uint256"
        }
      ],
      "name": "setPrice",
      "outputs": [],
      "stateMutability": "nonpayable",
      "type": "function"
    },
    {
      "inputs": [
        {
          "internalType": "uint256",
          "name": "_total",
          "type": "uint256"
        }
      ],
      "name": "setTotal",
      "outputs": [],
      "stateMutability": "nonpayable",
      "type": "function"
    },
    {
      "inputs": [],
      "name": "pause",
      "outputs": [],
      "stateMutability": "nonpayable",
      "type": "function"
    },
    {
      "inputs": [],
      "name": "unpause",
      "outputs": [],
      "stateMutability": "nonpayable",
      "type": "function"
    },
    {
      "inputs": [
        {
          "internalType": "uint256",
          "name": "_id",
          "type": "uint256"
        },
        {
          "internalType": "uint256",
          "name": "_amount",
          "type": "uint256"
        }
      ],
      "name": "mint",
      "outputs": [],
      "stateMutability": "payable",
      "type": "function"
    },
    {
      "inputs": [
        {
          "internalType": "uint256[]",
          "name": "_ids",
          "type": "uint256[]"
        },
        {
          "internalType": "uint256[]",
          "name": "_amounts",
          "type": "uint256[]"
        }
      ],
      "name": "mintBatch",
      "outputs": [],
      "stateMutability": "payable",
      "type": "function"
    },
    {
      "inputs": [],
      "name": "withdraw",
      "outputs": [],
      "stateMutability": "nonpayable",
      "type": "function"
    },
    {
      "inputs": [
        {
          "internalType": "uint256",
          "name": "tokenId",
          "type": "uint256"
        }
      ],
      "name": "uri",
      "outputs": [
        {
          "internalType": "string",
          "name": "",
          "type": "string"
        }
      ],
      "stateMutability": "view",
      "type": "function"
    }
  ],
  "bytecode": "0x601e600355600680546001600160a01b03191673e1935271d1993434a1a59fe08f24891dc5f398cd17905560e0604052603d6080818152906200282760a0396007906200004d908262000271565b50661550f7dca700006008553480156200006657600080fd5b506040805160208101909152600081526200008181620000aa565b506200008d33620000bc565b6004805460ff60a01b19169055620000a46200010e565b6200033d565b6002620000b8828262000271565b5050565b600480546001600160a01b038381166001600160a01b0319831681179093556040519116919082907f8be0079c531659141344cd1fd0a4f28419497f9722a3daafe3b4186f6b6457e090600090a35050565b6200011862000171565b6004805460ff60a01b1916600160a01b1790557f62e78cea01bee320cd4e420270b5ea74000d11b0c9f74754ebdbfc544b05a258620001543390565b6040516001600160a01b03909116815260200160405180910390a1565b62000185600454600160a01b900460ff1690565b15620001ca5760405162461bcd60e51b815260206004820152601060248201526f14185d5cd8589b194e881c185d5cd95960821b604482015260640160405180910390fd5b565b634e487b7160e01b600052604160045260246000fd5b600181811c90821680620001f757607f821691505b6020821081036200021857634e487b7160e01b600052602260045260246000fd5b50919050565b601f8211156200026c57600081815260208120601f850160051c81016020861015620002475750805b601f850160051c820191505b81811015620002685782815560010162000253565b5050505b505050565b81516001600160401b038111156200028d576200028d620001cc565b620002a5816200029e8454620001e2565b846200021e565b602080601f831160018114620002dd5760008415620002c45750858301515b600019600386901b1c1916600185901b17855562000268565b600085815260208120601f198616915b828110156200030e57888601518255948401946001909101908401620002ed565b50858210156200032d5787850151600019600388901b60f8161c191681555b5050505050600190811b01905550565b6124da806200034d6000396000f3fe60806040526004361061019b5760003560e01c80635c975abb116100ec578063a22cb4651161008a578063da492f6b11610064578063da492f6b1461048b578063e985e9c5146104ab578063f242432a146104f4578063f2fde38b1461051457600080fd5b8063a22cb4651461042b578063bd85b0391461044b578063d351cfdc1461047857600080fd5b80638456cb59116100c65780638456cb59146103c25780638da5cb5b146103d757806391b7f5ed146103f5578063a035b1fe1461041557600080fd5b80635c975abb146103795780636c0360eb14610398578063715018a6146103ad57600080fd5b80632ddbd13a116101595780633f4ba83a116101335780633f4ba83a146102e85780634e1273f4146102fd5780634f558e791461032a57806355f804b31461035957600080fd5b80632ddbd13a1461029d5780632eb2c2d6146102b35780633ccfd60b146102d357600080fd5b8062fdd58e146101a057806301ffc9a7146101d35780630e89341c146102035780631b2ef1ca146102305780631be3332d146102455780631f8d1d501461027d575b600080fd5b3480156101ac57600080fd5b506101c06101bb366004611943565b610534565b6040519081526020015b60405180910390f35b3480156101df57600080fd5b506101f36101ee366004611983565b6105cd565b60405190151581526020016101ca565b34801561020f57600080fd5b5061022361021e3660046119a7565b61061d565b6040516101ca9190611a10565b61024361023e366004611a23565b610672565b005b34801561025157600080fd5b50600654610265906001600160a01b031681565b6040516001600160a01b0390911681526020016101ca565b34801561028957600080fd5b506102436102983660046119a7565b610710565b3480156102a957600080fd5b506101c060035481565b3480156102bf57600080fd5b506102436102ce366004611b9b565b610760565b3480156102df57600080fd5b506102436107ac565b3480156102f457600080fd5b50610243610835565b34801561030957600080fd5b5061031d610318366004611c45565b610847565b6040516101ca9190611d4b565b34801561033657600080fd5b506101f36103453660046119a7565b600090815260056020526040902054151590565b34801561036557600080fd5b50610243610374366004611d5e565b610971565b34801561038557600080fd5b50600454600160a01b900460ff166101f3565b3480156103a457600080fd5b50610223610985565b3480156103b957600080fd5b50610243610a13565b3480156103ce57600080fd5b50610243610a25565b3480156103e357600080fd5b506004546001600160a01b0316610265565b34801561040157600080fd5b506102436104103660046119a7565b610a35565b34801561042157600080fd5b506101c060085481565b34801561043757600080fd5b50610243610446366004611daf565b610a42565b34801561045757600080fd5b506101c06104663660046119a7565b60009081526005602052604090205490565b610243610486366004611deb565b610a4d565b34801561049757600080fd5b506102436104a6366004611e38565b610ac7565b3480156104b757600080fd5b506101f36104c6366004611e53565b6001600160a01b03918216600090815260016020908152604080832093909416825291909152205460ff1690565b34801561050057600080fd5b5061024361050f366004611e86565b610af1565b34801561052057600080fd5b5061024361052f366004611e38565b610b36565b60006001600160a01b0383166105a45760405162461bcd60e51b815260206004820152602a60248201527f455243313135353a2061646472657373207a65726f206973206e6f742061207660448201526930b634b21037bbb732b960b11b60648201526084015b60405180910390fd5b506000818152602081815260408083206001600160a01b03861684529091529020545b92915050565b60006001600160e01b03198216636cdb3d1360e11b14806105fe57506001600160e01b031982166303a24d0760e21b145b806105c757506301ffc9a760e01b6001600160e01b03198316146105c7565b606060035482106106405760405162461bcd60e51b815260040161059b90611eeb565b600761064b83610bac565b60405160200161065c929190611f51565b6040516020818303038152906040529050919050565b61067a610c3f565b600354821061069b5760405162461bcd60e51b815260040161059b90611eeb565b806008546106a99190611ffe565b3410156106f15760405162461bcd60e51b81526020600482015260166024820152751393d508115393d551d208115512115494c814d1539160521b604482015260640161059b565b61070c33838360405180602001604052806000815250610c8c565b5050565b610718610d75565b806003541061075b5760405162461bcd60e51b815260206004820152600f60248201526e1590531551481393d5081590531251608a1b604482015260640161059b565b600355565b6001600160a01b03851633148061077c575061077c85336104c6565b6107985760405162461bcd60e51b815260040161059b90612015565b6107a58585858585610dcf565b5050505050565b6107b4610d75565b600047116107f95760405162461bcd60e51b8152602060048201526012602482015271494e53554646494349454e542046554e445360701b604482015260640161059b565b6006546040516001600160a01b03909116904780156108fc02916000818181858888f19350505050158015610832573d6000803e3d6000fd5b50565b61083d610d75565b610845610f79565b565b606081518351146108ac5760405162461bcd60e51b815260206004820152602960248201527f455243313135353a206163636f756e747320616e6420696473206c656e677468604482015268040dad2e6dac2e8c6d60bb1b606482015260840161059b565b6000835167ffffffffffffffff8111156108c8576108c8611a45565b6040519080825280602002602001820160405280156108f1578160200160208202803683370190505b50905060005b84518110156109695761093c85828151811061091557610915612063565b602002602001015185838151811061092f5761092f612063565b6020026020010151610534565b82828151811061094e5761094e612063565b602090810291909101015261096281612079565b90506108f7565b509392505050565b610979610d75565b600761070c82826120dd565b6007805461099290611f17565b80601f01602080910402602001604051908101604052809291908181526020018280546109be90611f17565b8015610a0b5780601f106109e057610100808354040283529160200191610a0b565b820191906000526020600020905b8154815290600101906020018083116109ee57829003601f168201915b505050505081565b610a1b610d75565b6108456000610fce565b610a2d610d75565b610845611020565b610a3d610d75565b600855565b61070c338383611063565b610a55610c3f565b8051600854610a649190611ffe565b341015610aac5760405162461bcd60e51b81526020600482015260166024820152751393d508115393d551d208115512115494c814d1539160521b604482015260640161059b565b61070c33838360405180602001604052806000815250611143565b610acf610d75565b600680546001600160a01b0319166001600160a01b0392909216919091179055565b6001600160a01b038516331480610b0d5750610b0d85336104c6565b610b295760405162461bcd60e51b815260040161059b90612015565b6107a585858585856112d7565b610b3e610d75565b6001600160a01b038116610ba35760405162461bcd60e51b815260206004820152602660248201527f4f776e61626c653a206e6577206f776e657220697320746865207a65726f206160448201526564647265737360d01b606482015260840161059b565b61083281610fce565b60606000610bb98361140f565b600101905060008167ffffffffffffffff811115610bd957610bd9611a45565b6040519080825280601f01601f191660200182016040528015610c03576020820181803683370190505b5090508181016020015b600019016f181899199a1a9b1b9c1cb0b131b232b360811b600a86061a8153600a8504945084610c0d57509392505050565b600454600160a01b900460ff16156108455760405162461bcd60e51b815260206004820152601060248201526f14185d5cd8589b194e881c185d5cd95960821b604482015260640161059b565b6001600160a01b038416610cb25760405162461bcd60e51b815260040161059b9061219d565b336000610cbe856114e7565b90506000610ccb856114e7565b9050610cdc83600089858589611532565b6000868152602081815260408083206001600160a01b038b16845290915281208054879290610d0c9084906121de565b909155505060408051878152602081018790526001600160a01b03808a1692600092918716917fc3d58168c5ae7397731d063d5bbf3d657854427343f4c083240f7aacaa2d0f62910160405180910390a4610d6c83600089898989611548565b50505050505050565b6004546001600160a01b031633146108455760405162461bcd60e51b815260206004820181905260248201527f4f776e61626c653a2063616c6c6572206973206e6f7420746865206f776e6572604482015260640161059b565b8151835114610df05760405162461bcd60e51b815260040161059b906121f1565b6001600160a01b038416610e165760405162461bcd60e51b815260040161059b90612239565b33610e25818787878787611532565b60005b8451811015610f0b576000858281518110610e4557610e45612063565b602002602001015190506000858381518110610e6357610e63612063565b602090810291909101810151600084815280835260408082206001600160a01b038e168352909352919091205490915081811015610eb35760405162461bcd60e51b815260040161059b9061227e565b6000838152602081815260408083206001600160a01b038e8116855292528083208585039055908b16825281208054849290610ef09084906121de565b9250508190555050505080610f0490612079565b9050610e28565b50846001600160a01b0316866001600160a01b0316826001600160a01b03167f4a39dc06d4c0dbc64b70af90fd698a233a518aa5d07e595d983b8c0526c8f7fb8787604051610f5b9291906122c8565b60405180910390a4610f718187878787876116a3565b505050505050565b610f8161175e565b6004805460ff60a01b191690557f5db9ee0a495bf2e6ff9c91a7834c1ba4fdd244a5e8aa4e537bd38aeae4b073aa335b6040516001600160a01b03909116815260200160405180910390a1565b600480546001600160a01b038381166001600160a01b0319831681179093556040519116919082907f8be0079c531659141344cd1fd0a4f28419497f9722a3daafe3b4186f6b6457e090600090a35050565b611028610c3f565b6004805460ff60a01b1916600160a01b1790557f62e78cea01bee320cd4e420270b5ea74000d11b0c9f74754ebdbfc544b05a258610fb13390565b816001600160a01b0316836001600160a01b0316036110d65760405162461bcd60e51b815260206004820152602960248201527f455243313135353a2073657474696e6720617070726f76616c20737461747573604482015268103337b91039b2b63360b91b606482015260840161059b565b6001600160a01b03838116600081815260016020908152604080832094871680845294825291829020805460ff191686151590811790915591519182527f17307eab39ab6107e8899845ad3d59bd9653f200f220920489ca2b5937696c31910160405180910390a3505050565b6001600160a01b0384166111695760405162461bcd60e51b815260040161059b9061219d565b815183511461118a5760405162461bcd60e51b815260040161059b906121f1565b3361119a81600087878787611532565b60005b845181101561126f576003548582815181106111bb576111bb612063565b6020026020010151106111e05760405162461bcd60e51b815260040161059b90611eeb565b8381815181106111f2576111f2612063565b602002602001015160008087848151811061120f5761120f612063565b602002602001015181526020019081526020016000206000886001600160a01b03166001600160a01b03168152602001908152602001600020600082825461125791906121de565b9091555081905061126781612079565b91505061119d565b50846001600160a01b031660006001600160a01b0316826001600160a01b03167f4a39dc06d4c0dbc64b70af90fd698a233a518aa5d07e595d983b8c0526c8f7fb87876040516112c09291906122c8565b60405180910390a46107a5816000878787876116a3565b6001600160a01b0384166112fd5760405162461bcd60e51b815260040161059b90612239565b336000611309856114e7565b90506000611316856114e7565b9050611326838989858589611532565b6000868152602081815260408083206001600160a01b038c168452909152902054858110156113675760405162461bcd60e51b815260040161059b9061227e565b6000878152602081815260408083206001600160a01b038d8116855292528083208985039055908a168252812080548892906113a49084906121de565b909155505060408051888152602081018890526001600160a01b03808b16928c821692918816917fc3d58168c5ae7397731d063d5bbf3d657854427343f4c083240f7aacaa2d0f62910160405180910390a4611404848a8a8a8a8a611548565b505050505050505050565b60008072184f03e93ff9f4daa797ed6e38ed64bf6a1f0160401b831061144e5772184f03e93ff9f4daa797ed6e38ed64bf6a1f0160401b830492506040015b6d04ee2d6d415b85acef8100000000831061147a576d04ee2d6d415b85acef8100000000830492506020015b662386f26fc10000831061149857662386f26fc10000830492506010015b6305f5e10083106114b0576305f5e100830492506008015b61271083106114c457612710830492506004015b606483106114d6576064830492506002015b600a83106105c75760010192915050565b6040805160018082528183019092526060916000919060208083019080368337019050509050828160008151811061152157611521612063565b602090810291909101015292915050565b61153a610c3f565b610f718686868686866117ae565b6001600160a01b0384163b15610f715760405163f23a6e6160e01b81526001600160a01b0385169063f23a6e619061158c90899089908890889088906004016122f6565b6020604051808303816000875af19250505080156115c7575060408051601f3d908101601f191682019092526115c49181019061233b565b60015b611673576115d3612358565b806308c379a00361160c57506115e7612374565b806115f2575061160e565b8060405162461bcd60e51b815260040161059b9190611a10565b505b60405162461bcd60e51b815260206004820152603460248201527f455243313135353a207472616e7366657220746f206e6f6e2d455243313135356044820152732932b1b2b4bb32b91034b6b83632b6b2b73a32b960611b606482015260840161059b565b6001600160e01b0319811663f23a6e6160e01b14610d6c5760405162461bcd60e51b815260040161059b906123fe565b6001600160a01b0384163b15610f715760405163bc197c8160e01b81526001600160a01b0385169063bc197c81906116e79089908990889088908890600401612446565b6020604051808303816000875af1925050508015611722575060408051601f3d908101601f1916820190925261171f9181019061233b565b60015b61172e576115d3612358565b6001600160e01b0319811663bc197c8160e01b14610d6c5760405162461bcd60e51b815260040161059b906123fe565b600454600160a01b900460ff166108455760405162461bcd60e51b815260206004820152601460248201527314185d5cd8589b194e881b9bdd081c185d5cd95960621b604482015260640161059b565b6001600160a01b0385166118355760005b8351811015611833578281815181106117da576117da612063565b6020026020010151600560008684815181106117f8576117f8612063565b60200260200101518152602001908152602001600020600082825461181d91906121de565b9091555061182c905081612079565b90506117bf565b505b6001600160a01b038416610f715760005b8351811015610d6c57600084828151811061186357611863612063565b60200260200101519050600084838151811061188157611881612063565b60200260200101519050600060056000848152602001908152602001600020549050818110156119045760405162461bcd60e51b815260206004820152602860248201527f455243313135353a206275726e20616d6f756e74206578636565647320746f74604482015267616c537570706c7960c01b606482015260840161059b565b6000928352600560205260409092209103905561192081612079565b9050611846565b80356001600160a01b038116811461193e57600080fd5b919050565b6000806040838503121561195657600080fd5b61195f83611927565b946020939093013593505050565b6001600160e01b03198116811461083257600080fd5b60006020828403121561199557600080fd5b81356119a08161196d565b9392505050565b6000602082840312156119b957600080fd5b5035919050565b60005b838110156119db5781810151838201526020016119c3565b50506000910152565b600081518084526119fc8160208601602086016119c0565b601f01601f19169290920160200192915050565b6020815260006119a060208301846119e4565b60008060408385031215611a3657600080fd5b50508035926020909101359150565b634e487b7160e01b600052604160045260246000fd5b601f8201601f1916810167ffffffffffffffff81118282101715611a8157611a81611a45565b6040525050565b600067ffffffffffffffff821115611aa257611aa2611a45565b5060051b60200190565b600082601f830112611abd57600080fd5b81356020611aca82611a88565b604051611ad78282611a5b565b83815260059390931b8501820192828101915086841115611af757600080fd5b8286015b84811015611b125780358352918301918301611afb565b509695505050505050565b600067ffffffffffffffff831115611b3757611b37611a45565b604051611b4e601f8501601f191660200182611a5b565b809150838152848484011115611b6357600080fd5b83836020830137600060208583010152509392505050565b600082601f830112611b8c57600080fd5b6119a083833560208501611b1d565b600080600080600060a08688031215611bb357600080fd5b611bbc86611927565b9450611bca60208701611927565b9350604086013567ffffffffffffffff80821115611be757600080fd5b611bf389838a01611aac565b94506060880135915080821115611c0957600080fd5b611c1589838a01611aac565b93506080880135915080821115611c2b57600080fd5b50611c3888828901611b7b565b9150509295509295909350565b60008060408385031215611c5857600080fd5b823567ffffffffffffffff80821115611c7057600080fd5b818501915085601f830112611c8457600080fd5b81356020611c9182611a88565b604051611c9e8282611a5b565b83815260059390931b8501820192828101915089841115611cbe57600080fd5b948201945b83861015611ce357611cd486611927565b82529482019490820190611cc3565b96505086013592505080821115611cf957600080fd5b50611d0685828601611aac565b9150509250929050565b600081518084526020808501945080840160005b83811015611d4057815187529582019590820190600101611d24565b509495945050505050565b6020815260006119a06020830184611d10565b600060208284031215611d7057600080fd5b813567ffffffffffffffff811115611d8757600080fd5b8201601f81018413611d9857600080fd5b611da784823560208401611b1d565b949350505050565b60008060408385031215611dc257600080fd5b611dcb83611927565b915060208301358015158114611de057600080fd5b809150509250929050565b60008060408385031215611dfe57600080fd5b823567ffffffffffffffff80821115611e1657600080fd5b611e2286838701611aac565b93506020850135915080821115611cf957600080fd5b600060208284031215611e4a57600080fd5b6119a082611927565b60008060408385031215611e6657600080fd5b611e6f83611927565b9150611e7d60208401611927565b90509250929050565b600080600080600060a08688031215611e9e57600080fd5b611ea786611927565b9450611eb560208701611927565b93506040860135925060608601359150608086013567ffffffffffffffff811115611edf57600080fd5b611c3888828901611b7b565b6020808252601290820152711513d2d153881251081393d508159053125160721b604082015260600190565b600181811c90821680611f2b57607f821691505b602082108103611f4b57634e487b7160e01b600052602260045260246000fd5b50919050565b6000808454611f5f81611f17565b60018281168015611f775760018114611f8c57611fbb565b60ff1984168752821515830287019450611fbb565b8860005260208060002060005b85811015611fb25781548a820152908401908201611f99565b50505082870194505b505050508351611fcf8183602088016119c0565b64173539b7b760d91b9101908152600501949350505050565b634e487b7160e01b600052601160045260246000fd5b80820281158282048414176105c7576105c7611fe8565b6020808252602e908201527f455243313135353a2063616c6c6572206973206e6f7420746f6b656e206f776e60408201526d195c881bdc88185c1c1c9bdd995960921b606082015260800190565b634e487b7160e01b600052603260045260246000fd5b60006001820161208b5761208b611fe8565b5060010190565b601f8211156120d857600081815260208120601f850160051c810160208610156120b95750805b601f850160051c820191505b81811015610f71578281556001016120c5565b505050565b815167ffffffffffffffff8111156120f7576120f7611a45565b61210b816121058454611f17565b84612092565b602080601f83116001811461214057600084156121285750858301515b600019600386901b1c1916600185901b178555610f71565b600085815260208120601f198616915b8281101561216f57888601518255948401946001909101908401612150565b508582101561218d5787850151600019600388901b60f8161c191681555b5050505050600190811b01905550565b60208082526021908201527f455243313135353a206d696e7420746f20746865207a65726f206164647265736040820152607360f81b606082015260800190565b808201808211156105c7576105c7611fe8565b60208082526028908201527f455243313135353a2069647320616e6420616d6f756e7473206c656e677468206040820152670dad2e6dac2e8c6d60c31b606082015260800190565b60208082526025908201527f455243313135353a207472616e7366657220746f20746865207a65726f206164604082015264647265737360d81b606082015260800190565b6020808252602a908201527f455243313135353a20696e73756666696369656e742062616c616e636520666f60408201526939103a3930b739b332b960b11b606082015260800190565b6040815260006122db6040830185611d10565b82810360208401526122ed8185611d10565b95945050505050565b6001600160a01b03868116825285166020820152604081018490526060810183905260a060808201819052600090612330908301846119e4565b979650505050505050565b60006020828403121561234d57600080fd5b81516119a08161196d565b600060033d11156123715760046000803e5060005160e01c5b90565b600060443d10156123825790565b6040516003193d81016004833e81513d67ffffffffffffffff81602484011181841117156123b257505050505090565b82850191508151818111156123ca5750505050505090565b843d87010160208285010111156123e45750505050505090565b6123f360208286010187611a5b565b509095945050505050565b60208082526028908201527f455243313135353a204552433131353552656365697665722072656a656374656040820152676420746f6b656e7360c01b606082015260800190565b6001600160a01b0386811682528516602082015260a06040820181905260009061247290830186611d10565b82810360608401526124848186611d10565b9050828103608084015261249881856119e4565b9897505050505050505056fea264697066735822122084b28ee23b8f1c957d165fd7ff436c494a730b7d37a93569108d17ca5a40713964736f6c6343000811003368747470733a2f2f666f722d7475726b65792d776562736974652d796634766f2e6f6e6469676974616c6f6365616e2e6170702f6d657461646174612f",
  "immutableReferences": {},
  "source": "// SPDX-License-Identifier: MIT\npragma solidity ^0.8.9;\n\n// @creator: Beautiful People\n// @title: Collective Drop for Earthquake Victims\n// @author: @devbhang - devbhang.eth\n// @author: @0xhazelrah - hazelrah.eth\n// @author: @berkozdemir - berk.eth\n// @author: @aertascom - aertas.eth\n\nimport \"@openzeppelin/contracts/token/ERC1155/ERC1155.sol\";\nimport \"@openzeppelin/contracts/access/Ownable.sol\";\nimport \"@openzeppelin/contracts/security/Pausable.sol\";\nimport \"@openzeppelin/contracts/utils/Strings.sol\";\nimport \"@openzeppelin/contracts/token/ERC1155/extensions/ERC1155Supply.sol\";\n\ncontract CDForTurkey is ERC1155, Ownable, Pausable, ERC1155Supply {\n    address public ahbapWallet = 0xe1935271D1993434A1a59fE08f24891Dc5F398Cd;\n    string public baseURI = \"https://for-turkey-website-yf4vo.ondigitalocean.app/metadata/\";\n\n    uint256 public price = 0.006 ether;\n\n    constructor() ERC1155(\"\") {\n        _pause();\n    }\n\n    /**\n     ** Just in case AHBAP decides to change the relief wallet.\n     ** They announced that they might create a new wallet in the future.\n     */\n    function setAhbapWallet(address _address) external onlyOwner {\n        ahbapWallet = _address;\n    }\n\n    function setBaseURI(string memory _newURI) external onlyOwner {\n        baseURI = _newURI;\n    }\n\n    function setPrice(uint256 _price) external onlyOwner {\n        price = _price;\n    }\n\n    function setTotal(uint256 _total) external onlyOwner {\n        require(total < _total, \"VALUE NOT VALID\");\n\n        total = _total;\n    }\n\n    function pause() external onlyOwner {\n        _pause();\n    }\n\n    function unpause() external onlyOwner {\n        _unpause();\n    }\n\n    function mint(uint256 _id, uint256 _amount) public payable whenNotPaused {\n        require(_id < total, \"TOKEN ID NOT VALID\");\n        require(msg.value >= price * _amount, \"NOT ENOUGH ETHERS SEND\");\n\n        _mint(msg.sender, _id, _amount, \"\");\n    }\n\n    function mintBatch(uint256[] memory _ids, uint256[] memory _amounts) public payable whenNotPaused {\n        require(msg.value >= price * _amounts.length, \"NOT ENOUGH ETHERS SEND\");\n\n        _mintBatch(msg.sender, _ids, _amounts, \"\");\n    }\n\n    function withdraw() external onlyOwner {\n        require(address(this).balance > 0, \"INSUFFICIENT FUNDS\");\n\n        payable(ahbapWallet).transfer(address(this).balance);\n    }\n\n    function uri(uint256 tokenId)\n        public\n        view\n        virtual\n        override(ERC1155)\n        returns (string memory)\n    {\n        require(tokenId < total, \"TOKEN ID NOT VALID\");\n\n        return (\n            string(\n                abi.encodePacked(baseURI, Strings.toString(tokenId), \".json\")\n            )\n        );\n    }\n\n    function _beforeTokenTransfer(\n        address _operator,\n        address _from,\n        address _to,\n        uint256[] memory _ids,\n        uint256[] memory _amounts,\n        bytes memory _data\n    ) internal override(ERC1155, ERC1155Supply) whenNotPaused {\n        super._beforeTokenTransfer(\n            _operator,\n            _from,\n            _to,\n            _ids,\n            _amounts,\n            _data\n        );\n    }\n}\n",
  "sourcePath": "/Users/devbhang/Documents/Projects/for-turkey-contract/contracts/CDForTurkey.sol",
  "compiler": {
    "name": "solc",
    "version": "0.8.17+commit.8df45f5f.Emscripten.clang"
  },
  "schemaVersion": "3.4.10",
  "updatedAt": "2023-02-09T22:26:27.895Z",
  "devdoc": {
    "kind": "dev",
    "methods": {
      "balanceOf(address,uint256)": {
        "details": "See {IERC1155-balanceOf}. Requirements: - `account` cannot be the zero address."
      },
      "balanceOfBatch(address[],uint256[])": {
        "details": "See {IERC1155-balanceOfBatch}. Requirements: - `accounts` and `ids` must have the same length."
      },
      "exists(uint256)": {
        "details": "Indicates whether any token exist with a given id, or not."
      },
      "isApprovedForAll(address,address)": {
        "details": "See {IERC1155-isApprovedForAll}."
      },
      "owner()": {
        "details": "Returns the address of the current owner."
      },
      "paused()": {
        "details": "Returns true if the contract is paused, and false otherwise."
      },
      "renounceOwnership()": {
        "details": "Leaves the contract without owner. It will not be possible to call `onlyOwner` functions anymore. Can only be called by the current owner. NOTE: Renouncing ownership will leave the contract without an owner, thereby removing any functionality that is only available to the owner."
      },
      "safeBatchTransferFrom(address,address,uint256[],uint256[],bytes)": {
        "details": "See {IERC1155-safeBatchTransferFrom}."
      },
      "safeTransferFrom(address,address,uint256,uint256,bytes)": {
        "details": "See {IERC1155-safeTransferFrom}."
      },
      "setApprovalForAll(address,bool)": {
        "details": "See {IERC1155-setApprovalForAll}."
      },
      "supportsInterface(bytes4)": {
        "details": "See {IERC165-supportsInterface}."
      },
      "totalSupply(uint256)": {
        "details": "Total amount of tokens in with a given id."
      },
      "transferOwnership(address)": {
        "details": "Transfers ownership of the contract to a new account (`newOwner`). Can only be called by the current owner."
      }
    },
    "version": 1
  },
  "userdoc": {
    "kind": "user",
    "methods": {
      "setAhbapWallet(address)": {
        "notice": "** Just in case AHBAP decides to change the relief wallet.** They announced that they might create a new wallet in the future."
      }
    },
    "version": 1
  }
}